{
  "contractName": "Farmer",
  "abi": [
    {
      "inputs": [
        {
          "internalType": "uint256",
          "name": "",
          "type": "uint256"
        }
      ],
      "name": "animals",
      "outputs": [
        {
          "internalType": "address",
          "name": "",
          "type": "address"
        }
      ],
      "stateMutability": "view",
      "type": "function",
      "constant": true
    },
    {
      "inputs": [
        {
          "internalType": "address",
          "name": "animalAddress",
          "type": "address"
        }
      ],
      "name": "addAddress",
      "outputs": [],
      "stateMutability": "nonpayable",
      "type": "function"
    },
    {
      "inputs": [
        {
          "internalType": "uint256",
          "name": "index",
          "type": "uint256"
        }
      ],
      "name": "getAnimal",
      "outputs": [
        {
          "internalType": "contract Animal",
          "name": "",
          "type": "address"
        }
      ],
      "stateMutability": "view",
      "type": "function",
      "constant": true
    },
    {
      "inputs": [
        {
          "internalType": "uint256",
          "name": "index",
          "type": "uint256"
        },
        {
          "internalType": "string",
          "name": "food",
          "type": "string"
        }
      ],
      "name": "feedByIndex",
      "outputs": [
        {
          "internalType": "string",
          "name": "",
          "type": "string"
        }
      ],
      "stateMutability": "view",
      "type": "function",
      "constant": true
    },
    {
      "inputs": [
        {
          "internalType": "uint256",
          "name": "index",
          "type": "uint256"
        }
      ],
      "name": "callByIndex",
      "outputs": [
        {
          "internalType": "string",
          "name": "",
          "type": "string"
        }
      ],
      "stateMutability": "view",
      "type": "function",
      "constant": true
    },
    {
      "inputs": [
        {
          "internalType": "address",
          "name": "_address",
          "type": "address"
        },
        {
          "internalType": "string",
          "name": "food",
          "type": "string"
        }
      ],
      "name": "feedByAddress",
      "outputs": [
        {
          "internalType": "string",
          "name": "",
          "type": "string"
        }
      ],
      "stateMutability": "view",
      "type": "function",
      "constant": true
    },
    {
      "inputs": [
        {
          "internalType": "address",
          "name": "_address",
          "type": "address"
        }
      ],
      "name": "callByAddress",
      "outputs": [
        {
          "internalType": "string",
          "name": "",
          "type": "string"
        }
      ],
      "stateMutability": "view",
      "type": "function",
      "constant": true
    }
  ],
  "bytecode": "0x608060405234801561001057600080fd5b50610b05806100206000396000f3fe608060405234801561001057600080fd5b506004361061009a576000357c01000000000000000000000000000000000000000000000000000000009004806345d3cc811161007857806345d3cc811461011b578063998dd3ca1461014b5780639d26373c1461017b578063b53d5820146101ab5761009a565b80632261a7761461009f57806338eada1c146100cf5780633c735ee6146100eb575b600080fd5b6100b960048036038101906100b49190610630565b6101db565b6040516100c69190610720565b60405180910390f35b6100e960048036038101906100e49190610742565b610283565b005b610105600480360381019061010091906107a5565b6102e9565b6040516101129190610720565b60405180910390f35b61013560048036038101906101309190610805565b610399565b6040516101429190610891565b60405180910390f35b61016560048036038101906101609190610805565b6103e0565b60405161017291906108bb565b60405180910390f35b61019560048036038101906101909190610805565b61041f565b6040516101a29190610720565b60405180910390f35b6101c560048036038101906101c09190610742565b6104c0565b6040516101d29190610720565b60405180910390f35b60608373ffffffffffffffffffffffffffffffffffffffff1663728d9b7484846040518363ffffffff167c0100000000000000000000000000000000000000000000000000000000028152600401610234929190610912565b600060405180830381865afa158015610251573d6000803e3d6000fd5b505050506040513d6000823e3d601f19601f8201168201806040525081019061027a9190610a57565b90509392505050565b6000819080600181540180825580915050600190039060005260206000200160009091909190916101000a81548173ffffffffffffffffffffffffffffffffffffffff021916908373ffffffffffffffffffffffffffffffffffffffff16021790555050565b60606102f484610399565b73ffffffffffffffffffffffffffffffffffffffff1663728d9b7484846040518363ffffffff167c010000000000000000000000000000000000000000000000000000000002815260040161034a929190610912565b600060405180830381865afa158015610367573d6000803e3d6000fd5b505050506040513d6000823e3d601f19601f820116820180604052508101906103909190610a57565b90509392505050565b60008082815481106103ae576103ad610aa0565b5b9060005260206000200160009054906101000a900473ffffffffffffffffffffffffffffffffffffffff169050919050565b600081815481106103f057600080fd5b906000526020600020016000915054906101000a900473ffffffffffffffffffffffffffffffffffffffff1681565b606061042a82610399565b73ffffffffffffffffffffffffffffffffffffffff166350d853156040518163ffffffff167c0100000000000000000000000000000000000000000000000000000000028152600401600060405180830381865afa158015610490573d6000803e3d6000fd5b505050506040513d6000823e3d601f19601f820116820180604052508101906104b99190610a57565b9050919050565b60608173ffffffffffffffffffffffffffffffffffffffff166350d853156040518163ffffffff167c0100000000000000000000000000000000000000000000000000000000028152600401600060405180830381865afa158015610529573d6000803e3d6000fd5b505050506040513d6000823e3d601f19601f820116820180604052508101906105529190610a57565b9050919050565b6000604051905090565b600080fd5b600080fd5b600073ffffffffffffffffffffffffffffffffffffffff82169050919050565b60006105988261056d565b9050919050565b6105a88161058d565b81146105b357600080fd5b50565b6000813590506105c58161059f565b92915050565b600080fd5b600080fd5b600080fd5b60008083601f8401126105f0576105ef6105cb565b5b8235905067ffffffffffffffff81111561060d5761060c6105d0565b5b602083019150836001820283011115610629576106286105d5565b5b9250929050565b60008060006040848603121561064957610648610563565b5b6000610657868287016105b6565b935050602084013567ffffffffffffffff81111561067857610677610568565b5b610684868287016105da565b92509250509250925092565b600081519050919050565b600082825260208201905092915050565b60005b838110156106ca5780820151818401526020810190506106af565b60008484015250505050565b6000601f19601f8301169050919050565b60006106f282610690565b6106fc818561069b565b935061070c8185602086016106ac565b610715816106d6565b840191505092915050565b6000602082019050818103600083015261073a81846106e7565b905092915050565b60006020828403121561075857610757610563565b5b6000610766848285016105b6565b91505092915050565b6000819050919050565b6107828161076f565b811461078d57600080fd5b50565b60008135905061079f81610779565b92915050565b6000806000604084860312156107be576107bd610563565b5b60006107cc86828701610790565b935050602084013567ffffffffffffffff8111156107ed576107ec610568565b5b6107f9868287016105da565b92509250509250925092565b60006020828403121561081b5761081a610563565b5b600061082984828501610790565b91505092915050565b6000819050919050565b600061085761085261084d8461056d565b610832565b61056d565b9050919050565b60006108698261083c565b9050919050565b600061087b8261085e565b9050919050565b61088b81610870565b82525050565b60006020820190506108a66000830184610882565b92915050565b6108b58161058d565b82525050565b60006020820190506108d060008301846108ac565b92915050565b82818337600083830152505050565b60006108f1838561069b565b93506108fe8385846108d6565b610907836106d6565b840190509392505050565b6000602082019050818103600083015261092d8184866108e5565b90509392505050565b600080fd5b7f4e487b7100000000000000000000000000000000000000000000000000000000600052604160045260246000fd5b610973826106d6565b810181811067ffffffffffffffff821117156109925761099161093b565b5b80604052505050565b60006109a5610559565b90506109b1828261096a565b919050565b600067ffffffffffffffff8211156109d1576109d061093b565b5b6109da826106d6565b9050602081019050919050565b60006109fa6109f5846109b6565b61099b565b905082815260208101848484011115610a1657610a15610936565b5b610a218482856106ac565b509392505050565b600082601f830112610a3e57610a3d6105cb565b5b8151610a4e8482602086016109e7565b91505092915050565b600060208284031215610a6d57610a6c610563565b5b600082015167ffffffffffffffff811115610a8b57610a8a610568565b5b610a9784828501610a29565b91505092915050565b7f4e487b7100000000000000000000000000000000000000000000000000000000600052603260045260246000fdfea26469706673582212208bc1a921b0666ac7da0c3920a606e69b8029e423f169828e8b776eaf598326bf64736f6c63430008110033",
  "immutableReferences": {},
  "source": "// SPDX-License-Identifier: MIT\npragma solidity 0.8.17;\n\n\nabstract contract Animal {\n    string private animal = \"Animal\";\n    string name;\n\n    constructor(string memory _animal, string memory _name) {\n        animal = _animal;\n        name = _name;\n    }\n\n    function eat(string memory _food) public view virtual returns (string memory);\n    function speak() public view virtual returns (string memory);\n\n    function getAnimal() internal view returns (string memory) {\n        return animal;\n    }\n\n    modifier eatsPlant(string memory _food){\n        require(compare(_food, \"plant\"), string.concat(getAnimal(), string.concat(\" can't eat \", _food)));\n        _;\n    }\n\n    modifier eatsMeat(string memory _food){\n        require(compare(_food, \"meat\"), string.concat(getAnimal(), string.concat(\" can't eat \", _food)));\n        _;\n    }\n\n    modifier cantEatChocolate(string memory _food){\n        require(!compare(_food, \"chocolate\"), string.concat(getAnimal(), string.concat(\" can't eat \", _food)));\n        _;\n    }\n\n    modifier canEat(string memory _food){\n        require(compare(_food, \"plant\") || compare(_food, \"meat\") || compare(_food, \"chocolate\"), string.concat(getAnimal(), string.concat(\" can't eat \", _food)));\n        _;\n    }\n\n    function compare(string memory str1, string memory str2) public pure returns (bool) {\n        return keccak256(abi.encodePacked(str1)) == keccak256(abi.encodePacked(str2));\n    }\n}\n\nabstract contract Herbivore is Animal {\n    function eat(string memory _food) public eatsPlant(_food) view override virtual returns (string memory) {\n        return \"Non-nom\";\n    }\n}\n\nabstract contract Carnivore is Animal {\n    function eat(string memory _food) public eatsMeat(_food) view override virtual returns (string memory) {\n        return \"Non-nom\";\n    }\n}\n\nabstract contract Omnivore is Animal {\n    function eat(string memory _food) public canEat(_food) view override virtual returns (string memory) {\n        return \"Non-nom\";\n    }\n}\n\ncontract Cow is Herbivore {\n\n    constructor(string memory _name) Animal(\"Cow\", _name) {}\n\n    function speak() public pure override returns (string memory) {\n        return \"Moooo!\";\n    }\n}\n\ncontract Horse is Herbivore {\n\n    constructor(string memory _name) Animal(\"Horse\", _name) {}\n\n    function speak() public pure override returns (string memory) {\n        return \"Igogo!\";\n    }\n}\n\ncontract Wolf is Carnivore{\n\n    constructor(string memory _name) Animal(\"Wolf\", _name) {}\n\n    function speak() public pure override returns(string memory) {\n        return \"Awoo\";\n    }\n}\n\ncontract Dog is Omnivore{\n\n    constructor(string memory _name) Animal(\"Dog\", _name) {}\n\n    function eat(string memory _food) public cantEatChocolate(_food) view override returns(string memory) {\n        return super.eat(_food);\n    }\n\n    function speak() public pure override returns(string memory) {\n        return \"Woof\";\n    }\n}\n\ncontract Pig is Omnivore {\n\n    constructor(string memory _name) Animal(\"Pig\", _name) {}\n\n    function speak() public pure override returns(string memory) {\n        return \"Oink-oink\";\n    }\n}\n\ncontract Farmer {\n    address[] public animals;\n\n    function addAddress(address animalAddress) public {\n        animals.push(animalAddress);\n    }\n\n    function getAnimal(uint256 index) public view returns(Animal) {\n        return Animal(animals[index]);\n    }\n\n    function feedByIndex(uint256 index, string calldata food) public view returns(string memory) {\n        return getAnimal(index).eat(food);\n    }\n\n    function callByIndex(uint256 index) public view returns(string memory) {\n        return getAnimal(index).speak();\n    }\n\n    function feedByAddress(address _address, string calldata food) public view returns(string memory) {\n        return Animal(_address).eat(food);\n    }\n\n    function callByAddress(address _address) public view returns(string memory) {\n        return Animal(_address).speak();\n    }\n}",
  "sourcePath": "/home/andrr/learn/solidity/robotdreams/dz_14/contracts/AllContracts.sol",
  "compiler": {
    "name": "solc",
    "version": "0.8.17+commit.8df45f5f.Emscripten.clang"
  },
  "schemaVersion": "3.4.16",
  "updatedAt": "2023-10-14T18:59:04.135Z",
  "networkType": "ethereum",
  "devdoc": {
    "kind": "dev",
    "methods": {},
    "version": 1
  },
  "userdoc": {
    "kind": "user",
    "methods": {},
    "version": 1
  }
}