{
  "contractName": "Pig",
  "abi": [
    {
      "inputs": [
        {
          "internalType": "string",
          "name": "_name",
          "type": "string"
        }
      ],
      "stateMutability": "nonpayable",
      "type": "constructor"
    },
    {
      "inputs": [
        {
          "internalType": "string",
          "name": "str1",
          "type": "string"
        },
        {
          "internalType": "string",
          "name": "str2",
          "type": "string"
        }
      ],
      "name": "compare",
      "outputs": [
        {
          "internalType": "bool",
          "name": "",
          "type": "bool"
        }
      ],
      "stateMutability": "pure",
      "type": "function"
    },
    {
      "inputs": [
        {
          "internalType": "string",
          "name": "_food",
          "type": "string"
        }
      ],
      "name": "eat",
      "outputs": [
        {
          "internalType": "string",
          "name": "",
          "type": "string"
        }
      ],
      "stateMutability": "view",
      "type": "function"
    },
    {
      "inputs": [],
      "name": "speak",
      "outputs": [
        {
          "internalType": "string",
          "name": "",
          "type": "string"
        }
      ],
      "stateMutability": "pure",
      "type": "function"
    }
  ],
  "bytecode": "0x60806040526040518060400160405280600681526020017f416e696d616c0000000000000000000000000000000000000000000000000000815250600090816200004a919062000362565b503480156200005857600080fd5b5060405162000df838038062000df883398181016040528101906200007e9190620005ad565b6040518060400160405280600381526020017f5069670000000000000000000000000000000000000000000000000000000000815250818160009081620000c6919062000362565b508060019081620000d8919062000362565b50505050620005fe565b600081519050919050565b7f4e487b7100000000000000000000000000000000000000000000000000000000600052604160045260246000fd5b7f4e487b7100000000000000000000000000000000000000000000000000000000600052602260045260246000fd5b600060028204905060018216806200016457607f821691505b6020821081036200017a57620001796200011c565b5b50919050565b60008190508160005260206000209050919050565b60006020601f8301049050919050565b60008160020a8302905092915050565b600060088302620001e77fffffffffffffffffffffffffffffffffffffffffffffffffffffffffffffffff82620001a5565b620001f38683620001a5565b95508019841693508086168417925050509392505050565b6000819050919050565b6000819050919050565b6000620002406200023a62000234846200020b565b62000215565b6200020b565b9050919050565b6000819050919050565b6200025c836200021f565b620002746200026b8262000247565b848454620001b5565b825550505050565b600090565b6200028b6200027c565b6200029881848462000251565b505050565b5b81811015620002c057620002b460008262000281565b6001810190506200029e565b5050565b601f8211156200030f57620002d98162000180565b620002e48462000195565b81016020851015620002f4578190505b6200030c620003038562000195565b8301826200029d565b50505b505050565b60008160020a8304905092915050565b6000620003376000198460080262000314565b1980831691505092915050565b600062000352838362000324565b9150826002028217905092915050565b6200036d82620000e2565b67ffffffffffffffff811115620003895762000388620000ed565b5b6200039582546200014b565b620003a2828285620002c4565b600060209050601f831160018114620003da5760008415620003c5578287015190505b620003d1858262000344565b86555062000441565b601f198416620003ea8662000180565b60005b828110156200041457848901518255600182019150602085019450602081019050620003ed565b8683101562000434578489015162000430601f89168262000324565b8355505b6001600288020188555050505b505050505050565b6000604051905090565b600080fd5b600080fd5b600080fd5b600080fd5b6000601f19601f8301169050919050565b620004838262000467565b810181811067ffffffffffffffff82111715620004a557620004a4620000ed565b5b80604052505050565b6000620004ba62000449565b9050620004c8828262000478565b919050565b600067ffffffffffffffff821115620004eb57620004ea620000ed565b5b620004f68262000467565b9050602081019050919050565b60005b838110156200052357808201518184015260208101905062000506565b60008484015250505050565b6000620005466200054084620004cd565b620004ae565b90508281526020810184848401111562000565576200056462000462565b5b6200057284828562000503565b509392505050565b600082601f8301126200059257620005916200045d565b5b8151620005a48482602086016200052f565b91505092915050565b600060208284031215620005c657620005c562000453565b5b600082015167ffffffffffffffff811115620005e757620005e662000458565b5b620005f5848285016200057a565b91505092915050565b6107ea806200060e6000396000f3fe608060405234801561001057600080fd5b506004361061005e576000357c0100000000000000000000000000000000000000000000000000000000900480633a96fdd71461006357806350d8531514610093578063728d9b74146100b1575b600080fd5b61007d600480360381019061007891906104f9565b6100e1565b60405161008a919061058c565b60405180910390f35b61009b61013a565b6040516100a89190610626565b60405180910390f35b6100cb60048036038101906100c69190610648565b610177565b6040516100d89190610626565b60405180910390f35b6000816040516020016100f491906106cd565b604051602081830303815290604052805190602001208360405160200161011b91906106cd565b6040516020818303038152906040528051906020012014905092915050565b60606040518060400160405280600981526020017f4f696e6b2d6f696e6b0000000000000000000000000000000000000000000000815250905090565b6060816101b9816040518060400160405280600581526020017f706c616e740000000000000000000000000000000000000000000000000000008152506100e1565b806101ff57506101fe816040518060400160405280600481526020017f6d656174000000000000000000000000000000000000000000000000000000008152506100e1565b5b806102455750610244816040518060400160405280600981526020017f63686f636f6c61746500000000000000000000000000000000000000000000008152506100e1565b5b61024d61030d565b8260405160200161025e919061070a565b60405160208183030381529060405260405160200161027e929190610730565b604051602081830303815290604052906102ce576040517f08c379a00000000000000000000000000000000000000000000000000000000081526004016102c59190610626565b60405180910390fd5b506040518060400160405280600781526020017f4e6f6e2d6e6f6d00000000000000000000000000000000000000000000000000815250915050919050565b60606000805461031c90610783565b80601f016020809104026020016040519081016040528092919081815260200182805461034890610783565b80156103955780601f1061036a57610100808354040283529160200191610395565b820191906000526020600020905b81548152906001019060200180831161037857829003601f168201915b5050505050905090565b6000604051905090565b600080fd5b600080fd5b600080fd5b600080fd5b6000601f19601f8301169050919050565b7f4e487b7100000000000000000000000000000000000000000000000000000000600052604160045260246000fd5b610406826103bd565b810181811067ffffffffffffffff82111715610425576104246103ce565b5b80604052505050565b600061043861039f565b905061044482826103fd565b919050565b600067ffffffffffffffff821115610464576104636103ce565b5b61046d826103bd565b9050602081019050919050565b82818337600083830152505050565b600061049c61049784610449565b61042e565b9050828152602081018484840111156104b8576104b76103b8565b5b6104c384828561047a565b509392505050565b600082601f8301126104e0576104df6103b3565b5b81356104f0848260208601610489565b91505092915050565b600080604083850312156105105761050f6103a9565b5b600083013567ffffffffffffffff81111561052e5761052d6103ae565b5b61053a858286016104cb565b925050602083013567ffffffffffffffff81111561055b5761055a6103ae565b5b610567858286016104cb565b9150509250929050565b60008115159050919050565b61058681610571565b82525050565b60006020820190506105a1600083018461057d565b92915050565b600081519050919050565b600082825260208201905092915050565b60005b838110156105e15780820151818401526020810190506105c6565b60008484015250505050565b60006105f8826105a7565b61060281856105b2565b93506106128185602086016105c3565b61061b816103bd565b840191505092915050565b6000602082019050818103600083015261064081846105ed565b905092915050565b60006020828403121561065e5761065d6103a9565b5b600082013567ffffffffffffffff81111561067c5761067b6103ae565b5b610688848285016104cb565b91505092915050565b600081905092915050565b60006106a7826105a7565b6106b18185610691565b93506106c18185602086016105c3565b80840191505092915050565b60006106d9828461069c565b915081905092915050565b7f2063616e27742065617420000000000000000000000000000000000000000000815250565b6000610715826106e4565b600b82019150610725828461069c565b915081905092915050565b600061073c828561069c565b9150610748828461069c565b91508190509392505050565b7f4e487b7100000000000000000000000000000000000000000000000000000000600052602260045260246000fd5b6000600282049050600182168061079b57607f821691505b6020821081036107ae576107ad610754565b5b5091905056fea26469706673582212208c875dab5e6bd49dab3618286d381aae79e70966a029f9faf45575c1e440b7f464736f6c63430008110033",
  "immutableReferences": {},
  "source": "// SPDX-License-Identifier: MIT\npragma solidity 0.8.17;\n\n\nabstract contract Animal {\n    string private animal = \"Animal\";\n    string name;\n\n    constructor(string memory _animal, string memory _name) {\n        animal = _animal;\n        name = _name;\n    }\n\n    function eat(string memory _food) public view virtual returns (string memory);\n    function speak() public view virtual returns (string memory);\n\n    function getAnimal() internal view returns (string memory) {\n        return animal;\n    }\n\n    modifier eatsPlant(string memory _food){\n        require(compare(_food, \"plant\"), string.concat(getAnimal(), string.concat(\" can't eat \", _food)));\n        _;\n    }\n\n    modifier eatsMeat(string memory _food){\n        require(compare(_food, \"meat\"), string.concat(getAnimal(), string.concat(\" can't eat \", _food)));\n        _;\n    }\n\n    modifier cantEatChocolate(string memory _food){\n        require(!compare(_food, \"chocolate\"), string.concat(getAnimal(), string.concat(\" can't eat \", _food)));\n        _;\n    }\n\n    modifier canEat(string memory _food){\n        require(compare(_food, \"plant\") || compare(_food, \"meat\") || compare(_food, \"chocolate\"), string.concat(getAnimal(), string.concat(\" can't eat \", _food)));\n        _;\n    }\n\n    function compare(string memory str1, string memory str2) public pure returns (bool) {\n        return keccak256(abi.encodePacked(str1)) == keccak256(abi.encodePacked(str2));\n    }\n}\n\nabstract contract Herbivore is Animal {\n    function eat(string memory _food) public eatsPlant(_food) view override virtual returns (string memory) {\n        return \"Non-nom\";\n    }\n}\n\nabstract contract Carnivore is Animal {\n    function eat(string memory _food) public eatsMeat(_food) view override virtual returns (string memory) {\n        return \"Non-nom\";\n    }\n}\n\nabstract contract Omnivore is Animal {\n    function eat(string memory _food) public canEat(_food) view override virtual returns (string memory) {\n        return \"Non-nom\";\n    }\n}\n\ncontract Cow is Herbivore {\n\n    constructor(string memory _name) Animal(\"Cow\", _name) {}\n\n    function speak() public pure override returns (string memory) {\n        return \"Moooo!\";\n    }\n}\n\ncontract Horse is Herbivore {\n\n    constructor(string memory _name) Animal(\"Horse\", _name) {}\n\n    function speak() public pure override returns (string memory) {\n        return \"Igogo!\";\n    }\n}\n\ncontract Wolf is Carnivore{\n\n    constructor(string memory _name) Animal(\"Wolf\", _name) {}\n\n    function speak() public pure override returns(string memory) {\n        return \"Awoo\";\n    }\n}\n\ncontract Dog is Omnivore{\n\n    constructor(string memory _name) Animal(\"Dog\", _name) {}\n\n    function eat(string memory _food) public cantEatChocolate(_food) view override returns(string memory) {\n        return super.eat(_food);\n    }\n\n    function speak() public pure override returns(string memory) {\n        return \"Woof\";\n    }\n}\n\ncontract Pig is Omnivore {\n\n    constructor(string memory _name) Animal(\"Pig\", _name) {}\n\n    function speak() public pure override returns(string memory) {\n        return \"Oink-oink\";\n    }\n}\n\ncontract Farmer {\n    address[] public animals;\n\n    function addAddress(address animalAddress) public {\n        animals.push(animalAddress);\n    }\n\n    function getAnimal(uint256 index) public view returns(Animal) {\n        return Animal(animals[index]);\n    }\n\n    function feedByIndex(uint256 index, string calldata food) public view returns(string memory) {\n        return getAnimal(index).eat(food);\n    }\n\n    function callByIndex(uint256 index) public view returns(string memory) {\n        return getAnimal(index).speak();\n    }\n\n    function feedByAddress(address _address, string calldata food) public view returns(string memory) {\n        return Animal(_address).eat(food);\n    }\n\n    function callByAddress(address _address) public view returns(string memory) {\n        return Animal(_address).speak();\n    }\n}",
  "sourcePath": "/home/andrr/learn/solidity/robotdreams/dz_14/contracts/AllContracts.sol",
  "compiler": {
    "name": "solc",
    "version": "0.8.17+commit.8df45f5f.Emscripten.clang"
  },
  "schemaVersion": "3.4.16",
  "updatedAt": "2023-10-14T18:56:04.902Z",
  "devdoc": {
    "kind": "dev",
    "methods": {},
    "version": 1
  },
  "userdoc": {
    "kind": "user",
    "methods": {},
    "version": 1
  }
}